:100D0300024400000143000340173B37032416004D
:100D130000032A000000C100C101022800000127CE
:010D230000CF
:100DBC00120980120E087B007A007940120AF9128F
:0A0DCC00066412046E120A0780F597
:03000B00020A875F
:100A8700C0E0C0F0C083C082C0D075D000C000C035
:100A970001C002C003C004C005C006C007758CFCB6
:100AA700758A660545E54570020544FFAE44BE03F9
:100AB70009BFE8067544007545003001053000029E
:100AC700B2957B007A007937AD43120D470543E5B0
:100AD7004364087002F543D007D006D005D004D090
:100AE70003D002D001D000D0D0D082D083D0F0D0B4
:020AF700E032EB
:100980007F06120D25EF6466703AF508C3E50894FA
:100990000374809480506FAF08120D2574402508B1
:1009A000F8A6077F017E00120D67E5082403FF12F9
:1009B0000D2574242508F8A6077F017E00120D6717
:1009C000050880C8E4F508C3E508940374809480A2
:1009D000502D74402508F8E6FDAF08120DEF7F0199
:1009E0007E00120D67E5082403FF74242508F8E64D
:1009F000FD120DEF7F017E00120D67050880C87D96
:060A0000667F06120DEFF7
:010A060022CD
:100A0700E54545447079E540B52410E541B5250B2A
:100A1700E542B52606D200D2018014300111E54027
:100A2700B52A0CE541B52B07E542B52C02D20030BB
:100A3700001130010EE542641E7008C200052B0547
:100A47002B802120001E20011BE4FFEFC3940374B9
:100A5700809480500F74242FF8E6FE742A2FF8A68E
:100A6700060F80E7D3E52B943B7480948040107485
:0F0A7700C4252BF52B052AE52A64187002F52AF1
:010A8600224D
:10046E00AE44AF457C007D0A1203E5ED4C600302FD
:10047E000663120DA18F21E52165235521F52285F5
:10048E00212324FE607514700302054B14700302C1
:10049E0005E024036003020663E52764207004F57B
:1004AE0027804CE527540F603E5327F0E4F508C330
:1004BE00E508940374809480503574402508F8E65E
:1004CE00FDAF08120DEF7F017E00120D67E50824C7
:1004DE0003FF74242508F8E6FD120DEF7F017E0060
:1004EE00120D67050880C8E527241054F0F527E59E
:1004FE002754F025E025E0F4F5A0220527AF277E4E
:10050E0000C3EF9410748094805008E527540F6454
:10051E00046026C3EF9410EE6480948050030206AC
:10052E0063E5279420748094804003020663E527D8
:10053E00540F640360030206635327F022E5275429
:10054E000F70030205D3C3E5279410748094805076
:10055E0049E52724FE6019146028240270310540F5
:10056E00D3E5409417748094804024E4F540801FB6
:10057E000541D3E541943B748094804012E4F541EB
:10058E00800D0541E541643C7002F541E4F5427B86
:10059E00007A007940120AF9802BE52724EE6015C7
:1005AE000470220524D3E52494177480948040159A
:1005BE00E4F52480100525D3E525943B74809480C2
:1005CE004003E4F525200003020663C200052B0557
:1005DE002B22E527540F6075C3E527941074809481
:1005EE0080503FE52724FE601914602824027027EE
:1005FE001540D3E540941774809480401A754017C7
:10060E0080151541D3E541943B7480948040087564
:10061E00413B8003E4F5427B007A007940120AF9EF
:10062E00802BE52724EE60150470221524D3E524D3
:10063E00941774809480401575241780101525D357
:10064E00E525943B74809480400375253B20000380
:05065E00300102C201A1
:010663002274
:10066400AE44AF457C017DF41203E5ED4C6003021A
:100674000813FB7A007940120B997E00C3748094AE
:1006840080404AE5279410748094805040E540757A
:10069400F00A842430F52DE54075F00A84E5F02451
:1006A40030F52E752F2DE54175F00A842430F53090
:1006B400E54175F00A84E5F02430F53175322DE515
:1006C4004275F00A842430F533E5428049C3E527B6
:1006D400942074809480504BE52475F00A8424306F
:1006E400F52DE52475F00A84E5F02430F52E752FF8
:1006F4002DE52575F00A842430F530E52575F00ADA
:1007040084E5F02430F53175322DE52675F00A8440
:100714002430F533E52675F00A84E5F02430F53409
:100724000207CDC2AF120C958E288F29D2AF752D3A
:1007340043752E20752F20753020753120E528C48F
:10074400F854F0C868FAE529C4540F48FB7C007DCE
:100754000AFFAE021203E5EF2430F5327C007D0A75
:10076400AF03AE021203E5ED2430F53375342EAC3D
:1007740028AD29E41202B1E4FBFA7980784112022F
:100784000FC004C005C006C007E528C4F854F0C86B
:1007940068FCE529C4540F48FDE41202B1A804A979
:1007A40005AA06AB07D007D006D005D00412001165
:1007B400E4FBFA79207841120106E4FBFA794078E7
:1007C400421200151202EA8F35C3E5279420748083
:1007D40094805029E527540F6023C3E54594F4E53C
:1007E4004494015018E527540FFF75F003A4242AFC
:1007F400F87620EF75F003A4242BF87620750B000F
:10080400750C00750D377B007A00792D12081422BF
:060814008B088A09890A25
:10081A00E4F50EF50FF50EAF0EEF3395E0FEC3EFDC
:10082A009408EE6480948040030208F3AB08AA0996
:10083A00A90AAF0FEF3395E08F82F5831203841272
:10084A00044808AE2008B32D087730087C310881A7
:10085A0032088633088B34089035089536089A375B
:10086A00089F3808A43908A943000008B875103F42
:10087A00803F751006803A75105B803575104F8081
:10088A0030751066802B75106D802675107D80215D
:10089A00751007801C75107F801775106F80127590
:1008AA001039800DE4F5108008751040800375102A
:1008BA0020AF0FEF3395E08F82F583A3AB08AA0927
:1008CA00A90A120384B42E05050F431080AB0BAAA4
:1008DA000CA90DAF0EEF3395E08F82F583E5101268
:0908EA0003C3050E050F020821ED
:0108F30022E2
:100D4700E4F58053A0E38D82F583120384F580C315
:100D570074079D25E025E0FFE5A054E34FF5A022A9
:100DA10020B1037F012220B0037F022220B2037F02
:0B0DB100032220B3037F04227F0022F6
:100D8500E4FEEEC3940874809480500FC2B6EF134E
:0B0D950092B4EFC313FFD2B60E80E74C
:010DA0002230
:080DD60075F00A84E5F02EFD22
:100DDE00C2B500C2B600D2B500120D85AF05020D28
:010DEE00857F
:100BDE00E4FDC2B500C2B600D2B500120D85E4FF29
:100BEE00EFC39408748094805011C2B6EDC313FD08
:100BFE0030B403430580D2B60F80E5C2B600D2B63C
:090C0E0000C2B400D2B400AF052D
:010C170022BA
:100AF900E4FD7F8E120DDE12036BFF75F00A84C4CC
:100B090054F0FEEF7F84120DD6900001120384FF8A
:100B190075F00A84C454F0FEEF7F82120DD690005E
:100B290002120384FF75F00A84C454F0FEEF75F0D5
:100B39000A84E5F02EFD7F80120DDE7D807F8E0216
:020B49000DDEBF
:100B99007F85120BDEEFC4540F75F00AA4FEEF54E3
:100BA9000F2E1203B17F83120BDEEFC4540F75F0C1
:100BB9000AA4FEEF540F2E9000011203C37F811285
:100BC9000BDEEFC4540F75F00AA4FEEF540F2E90FC
:050BD90000020203C34D
:050CBC00120CC1D2A1E1
:100CC1007F01EFD394007480948040127E02EED3B2
:0E0CD10094007480948040031E80F31F80E422
:010CDF0022F2
:0F0E1800D2A0120CBCC2A0120CC1C2A1020CC10C
:0A0E3600C2A0120CBCD2A0020CC135
:020B4B00AD07F4
:100B4D00E4FBFAEBC3940874809480501AEDC4133F
:100B5D001313540124FF92A0ED25E0FD120CBCC22D
:100B6D00A1120CC10B80DCD2A0120CC1D2A130A0FD
:100B7D00130AEAD394C87480948040F2C2A1120C77
:0B0B8D00C17F0022C2A1120CC17F0139
:010B9800223A
:100C1800E4FDFCD2A0120CC1EDC39408748094804A
:100C2800501AD2A1120CC1EC25E0FCA2A0E4334278
:0E0C380004120CC1C2A1120CC10D80DCAF046D
:010C4600228B
:100DEF00AC05A907120E187FA0120B4BAF01120B07
:090DFF004BAF04120B4B020E363F
:020D2500AC0719
:100D2700120E187FA0120B4BAF04120B4B120E18AA
:0F0D37007FA1120B4B120C18AD07120E36AF0531
:010D4600228A
:040E27007F057E00C5
:0B0E2B00EF1FAC0670011E4C70F62299
:020C4700AD07F7
:100C4900E4FBEBC39408748094805012C2B7ED138F
:100C590092B7120E27D2B7EDC313FD0B80E47F05BF
:050C69007E00020E2BCD
:100CE000E4FBEBC39408748094805014C2B7EDC346
:100CF00013FDD2B730B703430580120E270B80E2F5
:020D0000AF053D
:010D020022CE
:100C6E00C202D2B77F0C7E00120E2BC2B77F507E0F
:100C7E0000120E2BD2B77F0A7E00120E2BA2B79255
:060C8E0002120E27A20273
:010C9400223D
:100C9500120C6E7FCC120C477F44120C47120C6E5F
:100CA5007FCC120C477FBE120C47120CE0AA07122C
:060CB5000CE0EFFEEAFF77
:010CBB002216
:100E0800438901758CFC758A66D2A9D28CD2AF222F
:100D6700EF1FAA0670011E4A6013E4FCFDC3ED9451
:0D0D77006EEC940050EA0DBD00010C80F000
:010D8400224C
:10000E00020356E86480F8E933E83360110460F0C7
:10001E00ED33EC337009E8FCE9FDEAFEEBFF220458
:10002E0060DED3EB9FEA9EE99DE8C2E78CF0C2F753
:10003E0095F0400CE8CCF8E9CDF9EACEFAEBCFFB1F
:10004E0012032185D0F05804700320D5B3E8047054
:10005E00075002B2D502036092D5EC0460F7E4CCEF
:10006E00C0E0C398F8603B94186008400DD0E0FBE8
:10007E00020338E4FBFAC9FC8028E830E406E4C940
:10008E00FBE4CAFCE830E305E4C9CACBFCE854073C
:10009E006010F8C3E913F9EA13FAEB13FBEC13FC47
:1000AE00D8F130F52FC3E49CFCEF9BFFEE9AFEEDEA
:1000BE0099FDD0E0FBEF4E4D4C701222DB03020394
:1000CE005DEC2CFCEF33FFEE33FEED33FDED30E750
:1000DE00EB020338EF2BFFEE3AFEED39FDD0E0FBDD
:1000EE0050130BBB0003020360ED13FDEE13FEEF86
:0800FE0013FFEC13FC020338B0
:10010600EC4D6011E8497017ED33EC3304600DE4F3
:10011600FCFFFEFD22E933E8330470F802035612B1
:10012600032158046009E4CC2481500628500902B2
:10013600036028400302035DC0E0EB4A7044B980C7
:1001460006D0E0FB02034CEF4E701CBD8008EBFFAF
:10015600EAFEE9FD80EBE98DF0A4FEE5F00201EF91
:10016600E9CDF9EAFEEBFFEF89F0A4FCE5F0CE89D4
:10017600F0A42EFFE435F0CD89F0A42DFEE435F091
:100186008067EF4E7005BD80D780C3EF8BF0A4ACBF
:10019600F0EE8BF0A42CFCE435F0F8EF8AF0A42CFA
:1001A600E5F038FCE433CB8DF0A42CFCE5F03BF80D
:1001B600EE8AF0A42CFCE5F038F8E433CF89F0A4FD
:1001C6002CFCE5F038CF3400CE89F0A42FFFE5F003
:1001D6003EFEE433C98DF0A42EFEE5F039CD8AF05B
:1001E600A42FFFE5F03EFEE43DFD33D0E0FB5007D3
:1001F6000BBB000F020360EC2CFCEF33FFEE33FE6B
:06020600ED33FD02033898
:10020C00020360EC5D046005E859047003020356B8
:10021C00120321580460F6EC4860F2EC7004FDFE09
:10022C00FF22C860DB2481C85009C39860025006C5
:10023C0002035D9850CAF582E9294B4A7005AB82DE
:10024C0002034C75F0007C1A7880C3EF9BEE9AED9C
:10025C0099400DC3EF9BFFEE9AFEED99FDE842F03D
:10026C00DC23ACF0D0E0FFD0E0FED0E0FDAB822090
:10027C00E7101BEB60BAEC2CFCEF33FFEE33FEED1A
:10028C0033FD020338E803F830E705C0F075F000E1
:10029C00EF2FFFEE33FEED33FD40B830E7C280AAFE
:1002AC0075F020800E75F010800575F0087D007ECD
:1002BC00007F003392D530D50312043AEC33401052
:1002CC00EF33FFEE33FEED33FDEC33FCD5F0ED22D6
:0E02DC00E5F0247EA2D513CC92E7CDCEFF2212
:1002EA00EDD2E7CD33EC3392D524814006E4FFFE0C
:1002FA00FDFC22FCE4CFCECDCC24E0501174FF806B
:10030A00EDC3CC13CCCD13CDCE13CECF13CF047007
:07031A00F030D5DE02043AC9
:10032100E9D2E7C933E833F892D5EDD2E7CD33EC22
:0703310033FC5002B2D5229B
:10033800EC30E7100FBF000C0EBE00080DBD000426
:100348000BEB6014A2D5EB13FCED92E7FD2274FFD2
:10035800FCFDFEFF22E480F8A2D574FF13FC7D802B
:03036800E480EF3F
:030000000208F4FF
:0C08F400787FE4F6D8FD75814502093BD1
:10036B00BB010689828A83E0225002E722BBFE0290
:09037B00E32289828A83E49322C3
:10038400BB010CE58229F582E5833AF583E022502E
:1003940006E92582F8E622BBFE06E92582F8E22278
:0D03A400E58229F582E5833AF583E4932292
:1003B100BB010689828A83F0225002F722BBFE012B
:0203C100F32225
:1003C300F8BB010DE58229F582E5833AF583E8F070
:1003D300225006E92582C8F622BBFE05E92582C81C
:0203E300F22204
:1003E500BC000BBE0029EF8DF084FFADF022E4CCFC
:1003F500F875F008EF2FFFEE33FEEC33FCEE9DECC5
:10040500984005FCEE9DFE0FD5F0E9E4CEFD22ED0A
:10041500F8F5F0EE8420D21CFEADF075F008EF2F54
:10042500FFED33FD4007985006D5F0F222C398FD45
:050435000FD5F0EA22E2
:0E043A00C3E49FFFE49EFEE49DFDE49CFC22D3
:10044800D083D082F8E4937012740193700DA3A343
:1004580093F8740193F5828883E473740293686057
:06046800EFA3A3A380DF57
:10090000020DBCE493A3F8E493A34003F68001F244
:1009100008DFF48029E493A3F85407240CC8C333F8
:10092000C4540F4420C8834004F456800146F6DFC7
:10093000E4800B0102040810204080900D03E47E47
:10094000019360BCA3FF543F30E509541FFEE493BC
:10095000A360010ECF54C025E060A840B8E493A383
:10096000FAE493A3F8E493A3C8C582C8CAC583CAAE
:10097000F0A3C8C582C8CAC583CADFE9DEE780BE66
:010D240000CE
:00000001FF
